:020000040801F1
:10000000000003202D1801080B1201080D12010831
:1000100081180108811801088118010800000000FA
:100020000000000000000000000000000F120108A6
:100030001112010800000000131201081512010836
:10004000811801088118010881180108251201088A
:100050008118010881180108811801088118010818
:100060008118010881180108811801088118010808
:1000700081180108811801088118010881180108F8
:1000800081180108811801088118010881180108E8
:1000900081180108811801088118010881180108D8
:1000A00081180108811801088118010881180108C8
:1000B00081180108811801088118010881180108B8
:1000C00081180108811801088118010881180108A8
:1000D0001912010881180108811801088118010806
:1000E0008118010881180108811801088118010888
:1000F0002D12010829120108811801088118010830
:100100008118010881180108811801088118010867
:100110008118010881180108811801088118010857
:1001200081180108811801081F12010881180108AF
:0C013000811801088118010881180108DD
:10013C0010B5054C237833B9044B13B10448AFF315
:10014C0000800123237010BD40110020000000002E
:10015C00303E010808B5034B1BB103490348AFF30C
:10016C00008008BD0000000044110020303E010852
:10017C0053B94AB9002908BF00281CBF4FF0FF3102
:10018C004FF0FF3000F06EB9ADF1080C6DE904CE04
:10019C0000F006F8DDF804E0DDE9022304B0704756
:1001AC002DE9F047089D04468C46002B40F08380D7
:1001BC008A42174647D9B2FA82F242B1C2F1200004
:1001CC0024FA00F09140974040EA010C94404FEA29
:1001DC001748230CBCFBF8F61FFA87FE08FB16C168
:1001EC0043EA014306FB0EF1994209D9FB1806F1CB
:1001FC00FF3080F01981994240F21681023E3B4457
:10020C005B1AA4B2B3FBF8F008FB103344EA0344C6
:10021C0000FB0EFEA64509D93C1900F1FF3380F016
:10022C000581A64540F2028102383C4440EA064072
:10023C00A4EB0E0400261DB1D4400023C5E90043F5
:10024C003146BDE8F08702B9FFDEB2FA82F2002A2D
:10025C0050D1CB1B4FEA174E1FFA87F80126B3FB80
:10026C00FEFC210C0EFB1C3341EA034108FB0CF392
:10027C008B4207D979180CF1FF3002D28B4200F275
:10028C00E9808446C91AA3B2B1FBFEF00EFB101133
:10029C0043EA014408FB00F8A04507D93C1900F1DA
:1002AC00FF3302D2A04500F2D9801846A4EB080413
:1002BC0040EA0C40BFE78B4209D9002D00F0B18019
:1002CC000026C5E9000130463146BDE8F087B3FA97
:1002DC0083F6002E4AD18B4202D3824200F2B880C0
:1002EC00841A61EB030101208C46002DA8D0C5E9CE
:1002FC00004CA5E7C2F1200320FA03F6974001FA5F
:10030C0002F04FEA174ED9403043030CB1FBFEF616
:10031C001FFA87F80EFB161143EA014306FB08F19E
:10032C00994204FA02F409D9FB1806F1FF3C80F05B
:10033C008D80994240F28A80023E3B445B1A81B226
:10034C00B3FBFEF00EFB103341EA034100FB08F354
:10035C008B4207D9791800F1FF3C73D28B4271D9CB
:10036C0002383944CB1A40EA064678E7C6F1200C2D
:10037C0003FA06F422FA0CF31C4320FA0CF701FAE8
:10038C0006F34FEA144E21FA0CF11F433B0CB1FB60
:10039C00FEF91FFA84F80EFB191143EA014109FB1F
:1003AC0008FA8A4502FA06F200FA06F308D961182F
:1003BC0009F1FF3048D28A4546D9A9F102092144F6
:1003CC00A1EB0A01BFB2B1FBFEF00EFB101147EA24
:1003DC00014700FB08F8B84507D9E71900F1FF31D0
:1003EC002ED2B8452CD90238274440EA0940A7EB55
:1003FC000807A0FB02894F45C64649461AD317D0B9
:10040C005DB1B3EB0E0267EB010707FA0CFCF2408F
:10041C004CEA0202F740C5E9002700263146BDE848
:10042C00F0872E4628460BE70646E9E61846FDE619
:10043C004345E5D2B8EB020E69EB04010138DFE766
:10044C000846D2E760468DE78146B9E7664675E710
:10045C0030464AE7ACF1020C394413E702383C440D
:10046C0024E700BF704700BF4FF0B04382B0DA6C96
:10047C000243DA64DB6C18400190019B02B07047B8
:10048C004FF0B04382B0D3F84C210243C3F84C2157
:10049C00D3F84C3118400190019B02B0704700001A
:1004AC00F0B587B001F030FB01F036FB344A354F24
:1004BC00D2F8903043F48033C2F8903003F0C4FA91
:1004CC001422002101A803F0A5FC00232E48DFF81C
:1004DC00BCC01C461D461E4600EBC302917951B1AF
:1004EC0050F83310B94245D0614546D0B1F1904F28
:1004FC0001D1928816430133222BEDD10120002724
:10050C000323CDE90207049386B10196FFF7ACFFF4
:10051C000120FFF7B5FF01A94FF0904001F0E6FD77
:10052C003A4631464FF0904001F096FE7DB10220E4
:10053C000195FFF799FF0220FFF7A2FF114801A9CF
:10054C0001F0D4FD0F480022294601F085FE7CB154
:10055C0004200194FFF788FF0420FFF791FF0B485C
:10056C0001A901F0C3FD09480022214601F074FEE7
:10057C0007B0F0BD92881543BDE792881443BAE7E3
:10058C000008005800040048C33E01080008004859
:10059C0070B50C4B88B001AA03F118061546186803
:1005AC005968144603C40833B3422246F7D119885C
:1005BC009B782180A37003F023FA284602F047FFB2
:1005CC0008B070BD783E0108002000F099BC000016
:1005DC00BFF34F8F0549064BCA6802F4E062134320
:1005EC00CB60BFF34F8F00BFFDE700BF00ED00E015
:1005FC000400FA057047000038B54568B5F80B30B3
:10060C00B3F5124F044615D1002001F077F96D7B3C
:10061C008DB9254B1A79022A02D11D71FFF7D8FF2B
:10062C00FFF7B6FF2946012003F08CFA00F04CFED0
:10063C000123237038BD002002F0C9FEFF280446B8
:10064C00ECD070B1002001F04BF942F2107000F0C8
:10065C00BBFD002002F0BBFE1038C0B21F28F4D93D
:10066C00DCE7114B1A79022A0AD1187102F0D4FE78
:10067C00204601F035F90121002001F0FBFDFAE7DD
:10068C0002221A71014602F0B3FE204601F028F94D
:10069C0042F2107000F098FD002002F098FE103825
:1006AC00C0B21F28F4D9B9E70010002010B54FF0E4
:1006BC00B04288B09368264C43F40043936003F037
:1006CC0037FA244A2449D2F8803023F0070343F048
:1006DC000403C2F88030002000F014FAFFF7E0FEAB
:1006EC000121084603F02EFA002001F0D1F8012078
:1006FC0001F0CEF8022001F0CBF8012001F0F0F867
:10070C000121002001F008F903F08CF8134A0021B4
:10071C00022003F03DFB6946114B124800940193F3
:10072C0002F0C2FF04F58673029304F5067302A867
:10073C00039304F5497440F23C530593049403F07D
:10074C0031F903F06DF8012002F09EFE08B010BDE7
:10075C00E801032000040058581200200937010852
:10076C00010601080506010870470000024B4AF615
:10077C00AA221A60704700BF003000404FF0FF30D3
:10078C0003F054BA0021022003F0F2B9022003F066
:10079C001FBA022003F0D4BA002070472DE9F04FA5
:1007AC00012487B0CDE904141746244E019002228F
:1007BC000D4698464FF0000A0392214B1A6912031A
:1007CC00FBD4EFF3108B72B6D6F81890B9F1000F7A
:1007DC000FD1D6F89C301B4A934226D1019BEBB922
:1007EC0002A903A801F01AFC4FF48063F3614FF0E7
:1007FC00000A8BF31088B9F1000F19D00020FFF715
:10080C00CBFF04460028D8D10D4A13695B03FCD4F6
:10081C00B4FA84F0400907B0BDE8F08F3A4643467D
:10082C002946012001F0B4FBDEE74FF0010AE0E7B6
:10083C00BAF1000FE8D00120E1E700BF0014005826
:10084C0000400058000400800146002200230020D4
:10085C00FFF7A4BFF8B50D46134B14490746D1F862
:10086C0088209A42FBD101F045FB012002F0FDFDEE
:10087C0000242646AE4209D014B1681C801BF8BD7A
:10088C00F019FFF7E1FF01360446F3E7002CF4D131
:10089C00204602F0EAFD01F03FFB044B4FF480626E
:1008AC009A602046EBE700BF00040080001400585B
:1008BC0001460120FFF772BF2DE9F041134B0D46A5
:1008CC00134980461746D1F888209A42FBD101F093
:1008DC0011FB0024083D2646BE420DD01CB17A1CEB
:1008EC00901BBDE8F08108EBC600F5E90223FFF789
:1008FC00DFFF01360446EFE7002CF0D101F00CFBD2
:10090C00034B4FF480629A602046EAE700040080B3
:10091C0000140058054A906A936A80B29BB29842C0
:10092C0000D17047916A18468BB2F8E70028004056
:10093C00F0B5194B1A7882424FF0180215D11C7879
:10094C0002FB0032E4B25C70527ED2B21A701822F2
:10095C0002FB0030012202741A78062A04D119B95C
:10096C004FF0FF32C3F89420F0BD02FB0034267E1A
:10097C0094F819C0677E02FB0636FFB2BCF1060F75
:10098C00777618BF247E5FFA8CF51EBF02FB05320A
:10099C00E4B21476DBE700BF4C10002010B50F4C0E
:1009AC00D4F89430013316D0FFF7B4FFD4F8943058
:1009BC0083423DBF0A4BD4F894201B88D4F8943062
:1009CC0038BF9B18181A074B1B785843064B1B78DB
:1009DC00D84080B210BD0020FBE700BF4C100020B7
:1009EC00601100205C110020621100202DE9F04103
:1009FC003E4C3F4BD4F800809A68D8F8003012F483
:100A0C00806F03D0DA6812F0040FFAE79A68394E57
:100A1C0022F480629A6033781822DFB202FB0363FF
:100A2C00DD68FFF7BBFFA84207D9012386F8983091
:100A3C00002318254FF0000C1DE02F4A138810FAE4
:100A4C0083F3AB4235BF13882B1A0022012234BF2B
:100A5C009BB29BB286F89820EBE705FB076205FB7F
:100A6C000767D168884297BFD168C2F80CC0091AD1
:100A7C00D1607F7EFFB2062FEFD143B9FFF74AFF5B
:100A8C00C6F89400BDE8F041032001F0C9B8012B71
:100A9C0003D81A4A1278012A26D0013B9DB2D8F805
:100AAC000030DA685207FCD5D968C9B261F490619C
:100ABC00D960134B4FF40022DA60032001F0C0F828
:100ACC000B4B5A69120C12042A435A61FFF722FF8E
:100ADC002368C6F894001A68936843F480639360A3
:100AEC00AFF30080BDE8F0811546D8E76411002013
:100AFC00002800404C1000205E11002062110020E4
:100B0C000008005870B50C68404E414DCA23636212
:100B1C0053236362B368296043F02003B360B36866
:100B2C0003F00703C3F10403D9B23A4B19703269CD
:100B3C004FF4FE0393FAA3F3B3FA83F302F4FE0229
:100B4C00DA400132344BD2B21A703369334EC3F3EC
:100B5C000E0301333380013B5343A3F5A073CB4009
:100B6C004FF6FE7293422E4A8CBF4FF6FF739BB228
:100B7C0013802C4A136843F400231360D2F880309E
:100B8C0043F40023C2F88030002837D1264B0121D2
:100B9C0083F898104FF0FF31C3F8941006211874A5
:100BAC0083F8280083F8400083F8580083F870001D
:100BBC0083F888001970A36823F48063A360E3684A
:100BCC00DBB263F49063E3604FF40023D360032043
:100BDC0001F036F82B681A68936843F480439360ED
:100BEC002B681B68FF2203215A620846002200F082
:100BFC00ADFFBDE87040032000F0DABFE3685B0591
:100C0C00EED5032001F00CF8EAE700BF0028004005
:100C1C0064110020621100205C1100206011002082
:100C2C005E110020000800584C1000202DE9F04106
:100C3C000546EFF3108772B6244C254E032000F0C6
:100C4C00C5FFD4F80080D8F80030CA225A6253226B
:100C5C005A62182303FB05631B7C022B25D1002150
:100C6C002846FFF765FE3378062BDAB228D1194BEC
:100C7C009A68D8F8003012F4806F03D0DA6812F05A
:100C8C00040FFAE79A6822F480629A60DA685207D5
:100C9C00FCD5DA68D2B262F49062DA600E4B4FF493
:100CAC000022DA60032000F0CBFF23681B68FF22D0
:100CBC005A62032000F07CFF87F31088BDE8F081B6
:100CCC0073789342F1D0FFF791FEEEE764110020A8
:100CDC004C10002000280040000800582DE9F84373
:100CEC004E4C182303FB004305461B7C022B0E467F
:100CFC0001D1FFF79BFFEFF3108772B6032000F0D2
:100D0C0065FF474B1A681268CA214FF018095162E7
:100D1C0009FB054853215162022288F81020C8F8BB
:100D2C000C60C8F808602278062AD1B21E461BD186
:100D3C002378DBB263704FF0FF332570002088F806
:100D4C001910C4F89430237862789A425ED0FFF779
:100D5C004DFE33681B68FF225A62032000F028FF07
:100D6C0087F31088BDE8F883FFF718FED8F80C302D
:100D7C000344C8F80C30D8F80C10237809FB034353
:100D8C00DB68994225D32278D3B209FB0242527E0A
:100D9C00D2B2062A04D009FB0242D268914214D284
:100DAC00182202FB0341497E5FFA81FC06291CBF15
:100DBC0002FB0C421576182202FB054181F819C082
:100DCC000B7602FB03435D76BDE709FB03435A7EBA
:100DDC00DAE7237822789342D9B209FB03F311D0D6
:100DEC0023441A7E09FB02495FFA82FC89F81950E8
:100DFC0088F8191088F818C01D762378DBB2637058
:100E0C002570A0E788F819102344F5E7182303FB95
:100E1C000544E368181AE0609BE700BF4C10002003
:100E2C0064110020104700002DE9F84FEFF31086F5
:100E3C0072B62A4D2A492B681B684FF0CA094FF02D
:100E4C005308C3F82490C3F824809A6822F4806273
:100E5C009A600C781822E7B202FB0414227C022A56
:100E6C002FD1D4F804B0D4F814A091F898301BB357
:100E7C00637C012BD9B219D13846FFF759FD86F3A3
:100E8C001088A1683846FFF729FF2B681B685A4663
:100E9C00C3F824903946C3F824805046FFF7C2FFAC
:100EAC002B681B68FF225A62BDE8F88F86F3108806
:100EBC003846FFF7BBFEE8E7FFF798FD86F310888E
:100ECC00EEE7DA685207FCD5DA68D2B262F49062C7
:100EDC00DA60044B4FF40022DA60EFE76411002073
:100EEC004C100020000800584FF0B04382B0DA6C70
:100EFC000243DA64DB6C18400190019B02B070472E
:100F0C00034688B909480A4903614FF4E132C0E944
:100F1C0000120C2242614FF40042C0E9023383619B
:100F2C00C261836201F035BE704700BFC81100205A
:100F3C000038014010B9024801F020BB704700BFD7
:100F4C00C811002018B9024B986F00F089BF704788
:100F5C00C81100202DE9F043064689B01422002167
:100F6C0003A802F057FF32683F4B9A4279D1022016
:100F7C00FFF7BAFF0025402302244FF007084FF07B
:100F8C00030903A93948CDF81C80CDE90334CDE918
:100F9C00055901F0ABF82046FFF7A6FF802703A9FF
:100FAC003248CDF81C80CDE90374CDE9055901F028
:100FBC009DF80120FFF798FF4FF40063CDE903344F
:100FCC00CDE905494FF0B04403A94FF09040CDF85E
:100FDC001C8001F08BF8D4F8883023F0030343F025
:100FEC000103C4F88830236E43F480432366236ED8
:100FFC0003F480432A460F2102932420029B00F025
:10100C00A5FD242000F0D4FDA36C43F00203A364DF
:10101C00A36C03F002030193019BA36C43F0040344
:10102C00A364A36C124C03F004030093009B114BBC
:10103C0025624FF00F08C4E9003820461023C4E99C
:10104C000235C4E90475C4E9065500F02DFE3A20BA
:10105C00B4672A464146A66200F078FD3A2000F0BB
:10106C00A7FD09B0BDE8F08300380140000400483A
:10107C0068110020440402400268044B9A4203D1D8
:10108C00034B1B6803B11847704700BF0038014081
:10109C00D4230020474B07B54FF0B0444FF4004227
:1010AC001A6100F009FDD4F894305B0113D5D4F823
:1010BC009430D8000FD401F0D5F801F0D3F8D4F85F
:1010CC00903043F48033C4F89030D4F8903023F44B
:1010DC008033C4F890304FF0B0443F22236D43F47A
:1010EC0080132365236D03F480130193019B324B12
:1010FC009A609A615A6842F47C125A605A6942F4B6
:10110C007C125A615A6842F03F025A605A6942F0A6
:10111C003F025A6101F0A6F801F0A4F8D4F890301F
:10112C0043F00103C4F89030D4F890309907FBD504
:10113C00D4F8943023F4404343F48043C4F89430FF
:10114C001E4BD3F880200022C3F88020D3F89020C7
:10115C0002F05002C3F8902001F084F801F082F8FC
:10116C00D4F89030164823F4407343F48073C4F8D9
:10117C009030D4F8903043F40043C4F890300F22F0
:10118C00104C046047F6FF73C0E9022301F075F9B7
:10119C00CA23636253236362A36823F00703A3602B
:1011AC00FF236362FFF782FA4FF0FF3002F03EFD3F
:1011BC00FAE700BF00400058000C00580008005827
:1011CC00581200200028004070B5044600F090FC36
:1011DC00631C054602D000F091FC0444064E04E06A
:1011EC00336923F00403336130BF00F081FC431BEF
:1011FC00A342F5D370BD00BF00ED00E0704770470F
:10120C00FEE770477047704700F066BC0020FFF7A0
:10121C0091BE0020FFF796BEFFF706BE00F06CBA39
:10122C0000F0CABA10B504464068083001F0EAFD77
:10123C00003818BF0120207010BD10B1012803D058
:10124C007047012002F0AABC02F0B6BC00B589B010
:10125C000A4A029200230822CDE90032CDE9053377
:10126C00CDE90333A0228021184601F0EFFD04499B
:10127C000E2009B05DF804EB01F0E0BE014001085E
:10128C001010002008B50D4B1A68511C0DD00433FA
:10129C000B481B680270120A42701A0A8370C270E3
:1012AC001A0C1B0E0271437108BD002002F0E0FB0A
:1012BC00044B002808BF1846F6E700BF8075FF1FD7
:1012CC007C120020FB3F010870B55C4B96B00AAA5B
:1012DC0003F13006154618685968144603C40833E0
:1012EC00B3422246F7D1564B5648089308A9564BA1
:1012FC00099302F0D9F80121022002F023FC01200D
:10130C00524A002102F044FD284602F092F808B13E
:10131C00FFF774FF0024ADF8184002F037F8FFF720
:10132C00B1FF06210246204601F0DEFF4EF66E5359
:10133C000993474B08AA1B68089306212E2001F03D
:10134C00D3FF444A1021182001F0CEFF424A10214D
:10135C00082001F0C9FF1821012001F0F1FF01F074
:10136C0097FE0DF11E03019307AB009321460DF17F
:10137C001A030722012001F01FFE384BBDF81C1088
:10138C0000932246BDF81A00072301F049FF06AB73
:10139C00BDF81E10009322460223BDF81A0001F07E
:1013AC003FFF204601F0AAFD2D4B04940121CDE90D
:1013BC00024310220823CDE9003208462346224678
:1013CC0001F0BEFD01F008FD26482749274B091AFC
:1013DC004FF40042C1F30B311A610131C0F30B30F1
:1013EC00FFF738FAFFF74EFF214B42791A72027958
:1013FC005A72C2789A728278DA7242781A730278C8
:10140C0001325A7343798DF8253003798DF82430E5
:10141C00C3788DF8233083788DF8223043788DF89B
:10142C002130037808AA0133062120468DF820309C
:10143C0001F05AFFFFF70AFF16B070BD933E01088A
:10144C002800032031120108471201080935010850
:10145C008075FF1FEB3F0108DB3F0108D33F0108FC
:10146C0007B2010000C00408FFFF07080040005845
:10147C001010002008B54378052B01D1FFF7E6FECC
:10148C00012008BD034B4AF6AA221A600021012054
:10149C0002F06EBB00300040012002F099BB01202D
:1014AC0002F04EBCBFF34F8F0549064BCA6802F4DD
:1014BC00E0621343CB60BFF34F8F00BFFDE700BF6B
:1014CC0000ED00E00400FA052DE9F34D0379012B42
:1014DC0004462AD0032B66D0A3B902681278022ADC
:1014EC0013D0072A18D0012A0CD1454A454813823B
:1014FC0010604549091AC1F30B310131C0F30B30AF
:10150C00FFF7A8F902B0BDE8F08D3D4B3D481860DF
:10151C004FF480721A82ECE701230DF107010220CF
:10152C008DF8073001F014FCECE7354E45794FF09F
:10153C00000AB04606F10807307CC0F10802AA4246
:10154C000CD9002DDED0314B21682A461844514469
:10155C0002F052FC337C1D443574D3E721683844C7
:10156C00514402F049FCD8F8000001223946FFF73B
:10157C00A3F90028F7D1D8F80010D8E90223D1E953
:10158C0000BC9C4508BF9345D6D198F8103088F81C
:10159C001000A3F108020831C3F10803C8F80010C9
:1015AC0015449A44C8E7164C207C58B9637C13B395
:1015BC00012BA7D1164B00221A70164A43F8042CA3
:1015CC00FFF770FF04F10805C0F10802FF21284461
:1015DC0002F020FC2368D3E90001D4E902239942EC
:1015EC0008BF9042E2D0206801222946FFF764F937
:1015FC000028F8D1EEE7084B084A1A60E0E700BF74
:10160C00D823002000C00408FFFF0708E0230020B7
:10161C0004100020674523010010002001EFCDAB22
:10162C004FF0B04382B0D3F8502142F48012C3F88B
:10163C005021D3F8503103F480130193019B0A4BD2
:10164C00D3F8D42042F40072C3F8D4201A6A42F4BE
:10165C0000721A6240BF20BF044AD36843F40043AF
:10166C00D36002B0704700BF000800580004005857
:10167C004FF0B04307B51A6D42F480121A651B6D1A
:10168C0003F480130193019B084B1A6842F001028A
:10169C001A601A6842F480321A602C2000F088FA22
:1016AC002D2003B05DF804EB00F082BA000C00585A
:1016BC00024A536823F0010353607047000C005832
:1016CC00024B4FF480329A60704700BF000C0058F8
:1016DC00024A536823F0020353607047000C005811
:1016EC00044B4FF400329A605A6822F400325A606C
:1016FC00704700BF000C00581E4BDA6812F0020F46
:10170C0010B51A4609D15968890306D45A6842F4AF
:10171C0000325A6002F024F910BDD3689B0707D43D
:10172C0053689C0304D4536843F400335360F1E7CB
:10173C00104CE36813F0080F23460DD162681003B8
:10174C000AD4636843F4002363600B4B1B6898470F
:10175C004FF40023A360DFE7DA689106DCD45A6803
:10176C009202D9D45A6842F400125A6002F0C6F8B8
:10177C00D2E700BF000C00588412002010B5084CB2
:10178C00E3681B0706D5074B1860636823F4002336
:10179C00636010BD80474FF40023A360F9E700BFDE
:1017AC00000C005884120020024A536823F00803EE
:1017BC0053607047000C005838B5124CE36913F0B5
:1017CC00020F254607D063689B0704D402F0D4F8B7
:1017DC000223A36009E0EB69D80707D56B68D9072A
:1017EC0004D402F075F80123AB6038BD054CE369F5
:1017FC001A07FAD563681B07F7D402F013F908230C
:10180C00E7E700BF000C0058D458C4500433C41888
:10181C008C42F9D37047036004308842FBD3704785
:10182C000C4885460C480D490D4A0023FFF7EFFF85
:10183C000C480D490023FFF7F0FF0C480C4900231E
:10184C00FFF7EBFF00F0B2F802F0B2FAFFF722FC60
:10185C00FEE7000000000320101000204C100020B8
:10186C003441010840110020F4230020E001032042
:10187C00570A0320FEE74FF0B04382B0DA6C024304
:10188C00DA64DB6C18400190019B02B070470000D9
:10189C00F0B587B004461422002101A802F0BAFA70
:1018AC000220FFF7E8FF0C4B0C4D33F8146055F891
:1018BC002400019600270123CDE9023701A9022358
:1018CC00049300F013FC55F824003A46314600F01E
:1018DC00C3FC07B0F0BD00BF124001082C10002063
:1018EC00044B33F81010044B012253F8200000F085
:1018FC00B3BC00BF124001082C100020044B33F87D
:10190C001010044B002253F8200000F0A5BC00BFBF
:10191C00124001082C10002030B589B004460D4649
:10192C001422002103A802F075FABCB90420FFF7B9
:10193C00A2FFC5B9194B33F81430CDE90335012595
:10194C000223CDE90553164B03A953F8240000F0EC
:10195C00CDFB2846FFF738FC09B030BD631E012BC8
:10196C00E7D80820E3E7012DF6D10C4B059533F8A9
:10197C00143003930B4B0493094B03A953F8240025
:10198C0000F0B4FB084B0022185701900F2100F017
:10199C00DDF8019800F00CF9DEE700BF0C400108FF
:1019AC0020100020000021100940010808B5284B28
:1019BC00284A1968914204BF00221A60264AD2F8BC
:1019CC00883043F47003C2F88830002002F050F8DD
:1019DC0068B14FF0B042214B8179C2F89C30D2F8FB
:1019EC009C3023F47C5343EA0123C2F89C304FF023
:1019FC00B0431A6842F480321A601A689203FCD51C
:101A0C009A6822F0030242F002029A604FF0B0434F
:101A1C009A6802F00C02082AFAD11A6822F0807235
:101A2C001A600F4B1A6822F0070242F001021A608A
:101A3C001A6802F00702012AFAD14FF0B04213687B
:101A4C0023F001031360044B064A9A6008BD00BFE3
:101A5C00001000202CA35A3700ED00E0FECAFECA8D
:101A6C0000400058000001087047000038B5104CC9
:101A7C00237805460BB9012038BD00F097FC22787D
:101A8C004FF47A73B3FBF2F3B0FBF3F000F0B2F85F
:101A9C0004460028EFD10F2DEDD8024629464FF011
:101AAC00FF3000F053F8034B20461D60E4E700BF05
:101ABC003C1000204010002010B5032000F034F83A
:101ACC000F20FFF7D3FF044618B9FFF7CDFF2046D0
:101ADC0010BD0124FBE70000034A044B11681B787E
:101AEC000B441360704700BFF02300203C10002013
:101AFC00014B1868704700BFF0230020014B187889
:101B0C00704700BF3C100020024A536843F00103A9
:101B1C0053607047002004E0024A536843F002030C
:101B2C0053607047002004E00749CA6822F4E06261
:101B3C000302120403F4E063120C134343F0BF637B
:101B4C0043F40033CB60704700ED00E0164B30B52A
:101B5C00DC68C4F30224C4F10705231D042D28BF3F
:101B6C000425062B4FF0FF338CBF033C002403FAF3
:101B7C0005F521EA0501A34022EA0302A140002851
:101B8C0041EA0203ACBF00F16040084A4FEA03137C
:101B9C00B8BF00F00F00DBB2AABF00F561401354D0
:101BAC0080F8003330BD00BF00ED00E014ED00E024
:101BBC00002808DB4209012300F01F0003FA00F0A3
:101BCC00014B43F82200704700E100E000280DDBD8
:101BDC004309012200F01F0002FA00F02033044AEE
:101BEC0042F82300BFF34F8FBFF36F8F704700BFD6
:101BFC0000E100E00138B0F1807F0AD2064B074AC1
:101C0C005860F02182F823100020072298601A6097
:101C1C0070470120704700BF10E000E000ED00E0CD
:101C2C00002809DB4309012200F01F0002FA00F032
:101C3C004033024A42F82300704700BF00E100E045
:101C4C00002809DB4309012200F01F0002FA00F012
:101C5C006033024A42F82300704700BF00E100E005
:101C6C000E4A0368416C934288BF0D4A21F0030170
:101C7C009ABF01F1804202F5023252188264DBB243
:101C8C00084AC264083B1422B3FBF2F3012203F0AE
:101C9C001F0302FA03F30365704700BF07040240F9
:101CAC001C0802408008024010B500285ED0016874
:101CBC002F4B99424FF014044BD82E4A0A44B2FBD6
:101CCC00F4F292004264A3F207430364022380F807
:101CDC002530D0E90234234304690A68234344695C
:101CEC00234384692343C4692343046A22F4FF42D7
:101CFC0022F07002234313430B60FFF7B1FF83689C
:101D0C00816CB3F5804F04BF00234360426802F03E
:101D1C003F030B60D0E91314013A032A4C6020D81E
:101D2C00154A164C84651A44013B9200012103F0BC
:101D3C00030301FA03F300214265C365116063607C
:101D4C0000230122C36380F8243080F82520184634
:101D5C0010BD0B4B0B44B3FBF4F39B004364094BDA
:101D6C00B3E70023C0E91533C365E9E70120EFE7CA
:101D7C0007040240F8FFFDBF3F82001040090240FB
:101D8C00F8FBFDBF0004024040B190F82530022B57
:101D9C0006D00423C363002380F82430012070474D
:101DAC000368816C1A6822F00E021A600A6822F429
:101DBC0080720A601A6822F001021A60D0E91013CE
:101DCC0003F01C02012393404B60D0E913325A609C
:101DDC00436D33B11A6822F480721A60D0E916325E
:101DEC005A60012380F82530002380F824301846EF
:101DFC00704710B590F82530022B03D00423C36331
:101E0C00012010BD03681A6822F00E021A601A68CD
:101E1C0022F001021A60826C136823F48073136041
:101E2C00D0E9101303F01C02012393404B60D0E95E
:101E3C0013325A60436D33B11A6822F480721A60FF
:101E4C00D0E916325A60012380F82530836B0024C8
:101E5C0080F8244013B198472046D2E71846D0E7C3
:101E6C00016C426C036870B402F01C020E681D68B1
:101E7C000424944034420ED015F0040F0BD01A6891
:101E8C0092065EBF1A6822F004021A60036B4C6063
:101E9C0073B370BC184702249440344212D015F02E
:101EAC00020F0FD01A68950606D41A6822F00A029F
:101EBC001A60012380F8253000234C6080F8243010
:101ECC00C36AE5E708249440344211D02C070FD59F
:101EDC001C6824F00E041C60012303FA02F24A6011
:101EEC00C36380F82530002380F82430436BCFE7A0
:101EFC0070BC7047064B5A69002ABFBF054A9A60EE
:101F0C0002F188329A60BABF5869C00F002070473E
:101F1C000040005823016745044B5A6942F00042C7
:101F2C005A615869C043C00F704700BF0040005849
:101F3C0070B50546FFF7DCFD134E04463369D90333
:101F4C000FD43369DA0744BF012232614CF2FA3202
:101F5C0013400DD10C4E336913F480230ED1184667
:101F6C0005E0FFF7C5FD001BA842E7D3032070BDB9
:101F7C00054A1361054A01205360F8E7FFF7B8FDE5
:101F8C00001BA842E7D3F1E700400058881200205C
:101F9C002DE9F041184C98462378012B06460D4646
:101FAC00174626D0012323704FF47A700023636008
:101FBC00FFF7BEFFA0B9012E16D1104A536943F0AA
:101FCC00010353612F60BFF36F8FC5F804804FF48A
:101FDC007A70FFF7ADFF094A536923EA060656618A
:101FEC0000232370BDE8F0813946284601F026FF16
:101FFC00EDE70220F6E700BF8812002000400058F1
:10200C00054A536923F4FF6343EAC00040F480306F
:10201C0040F0020050617047004000582DE9F0413B
:10202C00304D2B78012B0646884659D001232B7056
:10203C004FF47A7000236B60FFF77AFF0446002898
:10204C0047D13368022B1CD14FF0FF33C8F8003056
:10205C007768D6E901321344BB420BD93846FFF7F7
:10206C00CFFF4FF47A70FFF763FF002836D0C8F823
:10207C00007004461C4A536923F4FF6323F00203E7
:10208C005361194B1A6891050FD51A6822F4007226
:10209C001A601A6842F400621A601A6822F400622C
:1020AC001A601A6842F400721A600F4B1A685205D3
:1020BC000FD51A6822F480621A601A6842F48052B2
:1020CC001A601A6822F480521A601A6842F480620C
:1020DC001A6000232B702046BDE8F0810137B8E769
:1020EC000224F8E788120020004000582DE9F04F38
:1020FC00574C00234FF001094FF00F080A6832FAD1
:10210C0003F501D1BDE8F08F09FA03FE1EEA0202C5
:10211C0000F094804D6825F0100A4FEA430C03261A
:10212C000AF1FF3706FA0CF6012F6FEA060611D8F2
:10213C00876807EA060BCF6807FA0CF747EA0B0724
:10214C008760476827EA0E0EC5F300179F4047EAE1
:10215C000E074760C76807EA060E8F6807FA0CF788
:10216C0047EA0E07BAF1020FC76014D14FEAD30E3B
:10217C0000EB8E0E03F0070ADEF820704FEA8A0A95
:10218C0008FA0AFB27EA0B0B0F6907FA0AF747EA6A
:10219C000B07CEF8207007683E4005F0030707FADE
:1021AC000CFC4CEA06060660EE0047D523F003074C
:1021BC0007F1804707F5803703F0030CBE684FEA40
:1021CC008C0C08FA0CFEB0F1904F26EA0E0E37D0AC
:1021DC00204EB04236D006F58066B04234D006F5BB
:1021EC008066B04232D006F58066B0420CBF042641
:1021FC00072606FA0CF646EA0E06BE60D4F8806096
:10220C00D74315F4803F0CBF3E401643C4F88060A2
:10221C00D4F8846015F4003F0CBF3E401643C4F85C
:10222C008460266815F4801F0CBF3E401643266060
:10223C006668AD0254BF3E401643666001335DE7ED
:10224C000026D6E70126D4E70226D2E70326D0E7FC
:10225C0000080058000400480AB18161704781628F
:10226C0070470000024A136843F480731360704790
:10227C00000400580D4B10B55B690C4628B99A0543
:10228C0007D500F01FF820B110BD9B0501D400F05C
:10229C0011F8074A1369012C23F00403136101D1CF
:1022AC0030BFF1E740BF20BF20BFEDE7000400586E
:1022BC0000ED00E0024A136843F48043136070475A
:1022CC00000400580D4B0E491A6822F480421A6023
:1022DC000C4A1268B2FBF1F132224A431946586992
:1022EC0010F4007F00D032B94B6913F4007F14BF97
:1022FC00032000207047013AF1E700BF00040058AA
:10230C0040420F00381000204FF0B0439A6812F092
:10231C000C020AD11B68224A03F0F003B02B28BF31
:10232C00B0231B0952F823007047042A35D0082A21
:10233C0007D11B681B4813F4801F1B4B08BF1846A2
:10234C007047DA6802F00302022A24D0032A1B68C1
:10235C0017D1144813F4801F134B18BF03464FF0CA
:10236C00B042D068D168D268C0F306205843C1F39C
:10237C0002130133B0FBF3F0530F0133B0FBF3F056
:10238C00704703F0F003B02B28BFB023044A1B099D
:10239C0052F82330E3E7034BE1E70248704700BFF4
:1023AC00784001080024F4000048E80108B5FFF764
:1023BC00ABFF4FF0B043044A9B68C3F3031352F8CE
:1023CC002330B0FBF3F008BD1840010808B5FFF747
:1023DC00EDFF4FF0B043054A9B68C3F3022352F85C
:1023EC00233003F01F03D84008BD00BF584001083C
:1023FC0008B5FFF7DBFF4FF0B043054A9B68C3F30A
:10240C00C22352F8233003F01F03D84008BD00BF8D
:10241C00584001087047026838B5D36823F0A00310
:10242C00D3600446FFF764FB05462368DB689B0614
:10243C0001D5002038BDFFF75BFB401BB0F57A7F60
:10244C00F3D90320F6E738B50368DA685206044678
:10245C0001D5002038BD4FF0FF32DA60FFF748FBA2
:10246C0005462368DB685B06F3D4FFF741FB401B92
:10247C00B0F57A7FF5D90320ECE738B50446D8B12E
:10248C0090F8213003F0FF021BB980F82020FFF7F1
:10249C00C1FF022384F821302368CA225A625322D6
:1024AC005A622046FFF7CFFF2368054630B1FF2262
:1024BC005A62042384F82130012538E09A68206997
:1024CC0022F4E00222F040029A60626899680243AA
:1024DC00A06902430A439A60E2681A611A69A1680A
:1024EC00606942EA01421A61DA6822F08002DA601D
:1024FC00DA6C22F00302DA64E269D96C02430A4313
:10250C00DA649B689B060CD42046FFF784FF40B12D
:10251C002368FF225A62042384F8213084F8205067
:10252C00CAE72368FF225A62012384F82130284627
:10253C0038BD03681A6822F490721A609A6822F007
:10254C00805222F001029A60C26E012A02BF1A6800
:10255C0022F010021A602023C0F888300023C366D2
:10256C0003677047704708B5806A0023A0F85E3097
:10257C00A0F85630FFF7F6FF08BD70470368DA691C
:10258C0019682DE9F04140F60F0632429D68044669
:10259C000FD1960640F18B8001F0200605F0805794
:1025AC003E4300F08480036F002B79D0BDE8F041EE
:1025BC0018478D4E8D482E400840304377D0D707B2
:1025CC0009D5C80507D501201862D4F88C0040F055
:1025DC000100C4F88C00970709D5E80707D502203D
:1025EC001862D4F88C0040F00400C4F88C00570733
:1025FC0009D5E80707D504201862D4F88C0040F000
:10260C000200C4F88C0017070BD501F020003043F2
:10261C0007D008201862D4F88C0040F00800C4F8E9
:10262C008C0016050AD5480108D54FF400601862D5
:10263C00D4F88C3043F02003C4F88C30D4F88C30B0
:10264C0073B393060AD501F0200105F0805551EAC9
:10265C00050303D0236F0BB1204698472368D4F8A9
:10266C008C509B6805F0280503F040031D43204661
:10267C0018D0FFF75EFF23689A6857060DD59A6845
:10268C00E06F22F040029A6038B1594B8363FFF738
:10269C00B0FB28B1E06F836B88E72046FFF762FF41
:1026AC00BDE8F081FFF75EFFC4F88C50F8E7E06EF0
:1026BC0001285BD1D60659D5C80657D510221A6207
:1026CC009A6812F040022FD0E06F01684A6892B20B
:1026DC00002AE5D0B4F85C509542E1D9A4F85E200C
:1026EC000A6812F0200215D1196821F48071196062
:1026FC00996821F001019960996821F04001996075
:10270C002021C4F88810E2661A6822F010021A60C0
:10271C00FFF73AFBB4F85E30B4F85C10C91A89B212
:10272C002046FFF72AFFBBE7B4F85E1088B2B4F876
:10273C005E1089B20029B3D0B4F85C10091A89B2C2
:10274C000029ADD0186820F490701860986820F0BB
:10275C00805020F0010098602020C4F88800E266C8
:10276C0022671A6822F010021A60D9E7D70209D53D
:10277C006E0207D54FF4801220461A62BDE8F04174
:10278C0000F037BA10060AD501F0800005F40005F8
:10279C00284304D0636F002B82D0204606E75706EF
:1027AC000ED54E060CD51A6822F040021A60202372
:1027BC00C4F88430002363672046FEF75DFC6FE7A6
:1027CC00150206D5480004D52046BDE8F04100F0BE
:1027DC0012BAD3017FF564AF0029BFF661AF204672
:1027EC00BDE8F04100F006BA010000102001000421
:1027FC0073250108F8B5044603682169A2681D68B1
:10280C00C0690A4361690A437149024329400A437A
:10281C001A605A68E16822F440520A435A606D4AC1
:10282C00A16993421CBF226A11439A6822F06E423E
:10283C0022F430620A439A60DA6A616A22F00F026B
:10284C000A43DA62644A934218D14FF0B043D3F88A
:10285C00883003F00303013B022B00F295805F4AA2
:10286C00D35CB0F5004F03F1FF3356D0072B16D8CD
:10287C00DFE803F0808815851515156D554A9342D0
:10288C000DD14FF0B043D3F8883003F44063B3F567
:10289C00006F1AD005D853B1B3F5806F12D0012058
:1028AC0009E0B3F5406FFAD14FF400400EE0FFF7AA
:1028BC008DFD58B900204FF00113A3660023C4E925
:1028CC001C33F8BDFFF720FDF3E745486568454B21
:1028DC00626A05EB450133F81220B0FBF2F3994222
:1028EC00DDD8B3EB053FDAD800230021FDF740FC1F
:1028FC000F0247EA10670602680830182A464FF0A4
:10290C00000347F10001FDF733FC374BA0F5407293
:10291C009A42C4D82368D860CCE7072BBFD801A251
:10292C0052F823F09B29010857290108AB2801080C
:10293C0051290108AB280108AB280108AB28010874
:10294C00A3290108FFF7E0FC23E0254823E04FF41E
:10295C0000406368616A234A32F81120B0FBF2F040
:10296C0000EB5300B0FBF3F080B2A0F110024FF675
:10297C00EF73CDE7FFF73CFD00289BD0E9E7FFF7AD
:10298C00C3FCF9E71648E4E7B0F5004FF2D1FFF7C6
:10299C002FFD00288ED06268616A124B33F811301B
:1029AC00B0FBF3F3500800EB4300B0FBF2F083B242
:1029BC00A3F110014FF6EF7291423FF670AF20F089
:1029CC000F00226880B2C3F342031843D06071E752
:1029DC00F369FFCF0080004000380140B840010887
:1029EC000024F400BC400108FFFC0F00836ADA07E6
:1029FC0010B506D50168C46A4A6822F40032224335
:102A0C004A609C0706D50168046B4A6822F4803240
:102A1C0022434A60590706D50168446B4A6822F480
:102A2C00802222434A601A0706D50168846B4A68E3
:102A3C0022F4004222434A60DC0606D50168C46BCE
:102A4C008A6822F4805222438A60990606D501686E
:102A5C00046C8A6822F4005222438A605A060FD50D
:102A6C000168446C4A6822F480122243B4F5801F3A
:102A7C004A6005D14A68846C22F4C00222434A6041
:102A8C001B0606D50268C16C536823F400230B4364
:102A9C00536010BD2DE9F041DDF8188004460E4658
:102AAC0015461F462268D36936EA03030CBF01237F
:102ABC000023AB4201D000201CE0B8F1FF3FF2D064
:102ACC00FFF716F8C01B40452068036802D8B8F120
:102ADC00000F11D123F4D0730360836823F001033A
:102AEC0083602023C4F88430C4F88830002384F831
:102AFC0080300320BDE8F0815A07D3D5C3691B058C
:102B0C00D0D54FF400630362036823F4D0730360E1
:102B1C00836823F0010383602023C4F88430C4F855
:102B2C008830C4F88C30E1E730B50446002585B018
:102B3C00C0F88C50FEF7DCFF2268126811070346C0
:102B4C0017D422681268520709D56FF07E420092A2
:102B5C004FF4800100222046FFF79CFFB0B92023E0
:102B6C000020C4F8843084F88000C4F88830E06613
:102B7C000DE06FF07E42009203902A464FF4001154
:102B8C002046FFF787FF039B0028DAD0032005B00F
:102B9C0030BD10B5044650B3D0F884301BB980F862
:102BAC008030FEF7D7F922682423C4F884301368E8
:102BBC0023F0010313602046FFF71CFE012816D0FA
:102BCC00A36A13B12046FFF711FF23685A6822F459
:102BDC0090425A609A6822F02A029A601A6842F06F
:102BEC00010220461A60BDE81040FFF79DBF01208E
:102BFC0010BD7047704770471FB54378FF2B52D1FB
:102C0C00B0F8033040F61342934239D040F61742E5
:102C1C0093422DD040F60142934244D12349B0F85F
:102C2C0007204B8801339A420ED100238DF80C30CB
:102C3C0000F10D030293B0F80B308DF80D3002A8A3
:102C4C00FEF742FC012410E0CB8801339A422AD1D2
:102C5C0000F10D0301248DF80C400293B0F80B30F9
:102C6C008DF80D3002A8FEF72FFC204604B010BDE5
:102C7C000E4A147A002CF8D0002313720323D5E7E4
:102C8C000A4BB0F80710DB88013399420BD100F1E5
:102C9C000A030193437A009300231A46B0F8050007
:102CAC0000F0EEFACEE70024DFE700BFE8100020CA
:102CBC002DE9F04186B0204D204800F099F82049CC
:102CCC00009508230122022000F000FA2B46002474
:102CDC0033F8020B05930A274FF0010804263346FC
:102CEC00CDE90374CDE90148164A0096022100F0A3
:102CFC003DFA2B46144A33F8040B0194CDE90443F6
:102D0C0020230093CDE902474346022100F02EFA1E
:102D1C002B460E4A33F8060B0397CDE904830323A5
:102D2C00CDE9014300961423022100F01FFA2C7206
:102D3C0006B0BDE8F08100BFE8100020052C0108AA
:102D4C00D4400108E4400108F440010804410108A2
:102D5C0007B5064801230372009181880088002280
:102D6C0000F05EFA03B05DF804FB00BFE810002031
:102D7C00704770477047704770477047704770478F
:102D8C00704770477047704770477047704770477F
:102D9C0008B5FFF7EDFFFFF7ECFFFFF7EBFFFFF7D1
:102DAC00EAFFFFF7E9FFFFF7E8FFFFF7E7FFFFF7A1
:102DBC00E6FFFFF7E5FFFFF7E4FFFFF7E3FFFFF7A1
:102DCC00E2FFFFF7E1FFFFF773FFFFF7DFFFFFF70E
:102DDC00DCFFFFF7DCFF08BD08B5044B00221A77B7
:102DEC0083F82020FFF7D4FF08BD00BFF4100020AB
:102DFC00034A137F42F8230001331377704700BF57
:102E0C00F410002070B54378FF2B044604D0204604
:102E1C00BDE87040FEF72EBBB0F8033003F47F43DF
:102E2C00B3F5406FF3D1084E0025327FEBB29A42D6
:102E3C00EDD956F823302046984701350028F4D0B8
:102E4C00023818BF012070BDF41000202DE9F04F9E
:102E5C00CBB09C469DF854619DF85C51ADF82B208D
:102E6C009DF850218DF828000AAC06F108034FF0AC
:102E7C000009ADF829108DF82E2056998DF82DC02B
:102E8C0032460CA804EB030B01938DF82F6005F16F
:102E9C0009078DF80F9000F096FA019B5899E554AC
:102EAC0037442A460BF1010000F08DFA04EB070AB7
:102EBC00BDF86431E353BDF86831AAF8023018222A
:102ECC004946093604A800F080FA35440A4B0493AD
:102EDC000DF10F0801230435494604A8CDE9075824
:102EEC000694099300F040FB4845ACBF98F80000ED
:102EFC00FF204BB0BDE8F08F3F00830070B5C8B029
:102F0C0000258DF820001822294602A88DF80750BC
:102F1C0000F05BFA094B02930DF10704012308AE94
:102F2C00294602A8CDE905340496079300F01CFB52
:102F3C00A842ACBF2078FF2048B070BD3F00850090
:102F4C0070B5C8B000268DF823309DF830318DF85F
:102F5C0024309DF834318DF825309DF838318DF8BA
:102F6C0026304F9B8DF820008DF821108DF82220F3
:102F7C00CDF8273018229DF840318DF82B30314692
:102F8C0002A88DF8076000F020FA0A4B02930DF1AD
:102F9C0007050C23CDE9053508AC0123314602A801
:102FAC000494079300F0E0FAB042ACBF2878FF20FD
:102FBC0048B070BD3F0086002DE9F041C8B0804696
:102FCC000F4616460021072268461D4600F0FDF903
:102FDC001822002102A88DF820808DF821708DF820
:102FEC00226000F0F2F9144B02930323059308AC12
:102FFC000723002102A80494CDF818D0079300F001
:10300C00B3FA002816DB9DF8000080B9009B9DF8F0
:10301C000420C3F30F232B809DF8033043EA0223D3
:10302C004E9A1380019B4F9AC3F30F23138048B021
:10303C00BDE8F081FF20FAE73F008A00F0B5C9B087
:10304C0000268DF82000024604460DF121008DF873
:10305C00076000F0B8F91822314602A800F0B5F963
:10306C000A4B02930DF10705012308AF01343146D9
:10307C0002A8CDE905450497079300F075FAB04214
:10308C00ACBF2878FF2049B0F0BD00BF3F008E00D8
:10309C0010B5002488B01822214602A88DF80740EC
:1030AC0000F093F9084B02930DF1070306932146A8
:1030BC00012302A8079300F057FAA042ACBF9DF879
:1030CC000700FF2008B010BD3F0001012DE9F04FB3
:1030DC000128C9B004468A4691461F463BD00228B7
:1030EC000CBF4FF011084FF0010801AD0322002175
:1030FC00284608AE00F069F9012C34702ED0022C51
:10310C002ED1102406EB080B224651460DF121005E
:10311C0000F059F906F80890182200218BF801707C
:10312C0002A800F052F9104B029303340323002140
:10313C0002A8CDE905450496079300F015FA00287E
:10314C0010DB287820B92B68529AC3F30F23138015
:10315C0049B0BDE8F08F4FF00308C6E70224D1E771
:10316C004720F5E7FF20F3E73F0002012DE9F0438C
:10317C000129C9B006460C469146984646D002290C
:10318C000CBF1327032708AD0322002101A800F070
:10319C001CF9012C2E80AC703AD0022C3AD11024A0
:1031AC00EE19224649460DF1230000F00CF99DF86A
:1031BC00403125F80780B3709DF84431F3709DF8C9
:1031CC00483133719DF84C3173719DF85031B371A6
:1031DC001822002102A800F0F8F80A340F4B0293D1
:1031EC000594032301AC002102A8049506940793CF
:1031FC0000F0BAF900280FDB207820B92368559A23
:10320C00C3F30F23138049B0BDE8F0830527BAE759
:10321C000224C5E74720F6E7FF20F4E73F0004014E
:10322C00F0B5C9B00027ADF82000ADF822108DF82C
:10323C0024204E998DF825301A460DF126001C4697
:10324C008DF8077000F0BFF81822394602A800F07C
:10325C00BCF80A4B02930DF10706012308AD0634A6
:10326C00394602A8CDE905460495079300F07CF990
:10327C00B842ACBF3078FF2049B0F0BD3F0006012A
:10328C00F0B5C9B000279DF83851ADF82000ADF865
:10329C0022108DF824204F998DF825302A460DF1F7
:1032AC0027008DF826508DF8077000F08CF8182246
:1032BC00394602A800F089F80A4B02930DF1070673
:1032CC00012308AC0735394602A8CDE9055604940C
:1032DC00079300F049F9B842ACBF3078FF2049B0F1
:1032EC00F0BD00BF3F002601F0B5C9B00C4600266A
:1032FC0011468DF8200022460DF122008DF8214058
:10330C008DF8076000F05FF81822314602A800F033
:10331C005CF80A4B02930DF10705012308AF023448
:10332C00314602A8CDE905450497079300F01CF936
:10333C00B042ACBF2878FF2049B0F0BD3F000C0074
:10334C0070B5C8B000258DF820008DF8211018221A
:10335C00294602A88DF8075000F037F80A4B029363
:10336C000DF107040223CDE9053408AE01232946EB
:10337C0002A80496079300F0F7F8A842ACBF207897
:10338C00FF2048B070BD00BF3F000F0010B50024F7
:10339C0088B01822214602A88DF8074000F015F8D5
:1033AC004FF0031302930DF10703069321460123FB
:1033BC0002A8079300F0D8F8A042ACBF9DF8070014
:1033CC00FF2008B010BD00F017BD00F023BD1FB5E5
:1033DC00002204466B4611464FF6524000F0C2F9EB
:1033EC0014B19DF80F3023709DF80E0004B010BD81
:1033FC001FB508B10090042011B104300191C0B286
:10340C006B4601461A464FF6544000F0ABF99DF856
:10341C000E0005B05DF804FB1FB500226B4611468B
:10342C004FF65A4000F09EF99DF80E0005B05DF87D
:10343C0004FB1FB500F10C026B4624214FF66640CD
:10344C0000F090F99DF80E0005B05DF804FB1FB577
:10345C0000F10C026B460F214FF6684000F082F928
:10346C009DF80E0005B05DF804FB1FB56B468DF89A
:10347C0000001A4601214FF6694000F073F99DF8DF
:10348C000E0005B05DF804FB1FB56B468DF800000F
:10349C001A4601214FF6734000F064F99DF80E00B6
:1034AC0005B05DF804FB00007FB50F4D0F4B4A686B
:1034BC000F4EE8610C4628461A6000F0D3F80D4810
:1034CC00246800F0E5FA304640F8044B00F0E0FACE
:1034DC00012333732B6823B1074A02940092684688
:1034EC00984704B070BD00BFAC120020A812002099
:1034FC0018110020A01200203D3601081FB5174CF2
:10350C00201D00F0C8FAB0B9237BA3B101A9201D7E
:10351C0000F0EEFA124BDA690123BAB101998DF879
:10352C000830039102A890479DF8083023737BB1B3
:10353C00019800F057FA0B4800F0ADFA20B9237B44
:10354C0013B10848FDF79EFF04B010BD2373EFE7DD
:10355C000199201D00F0A9FAEDE700BF1811002019
:10356C00AC1200201C1100202DE9F7432C4E3368BF
:10357C0004460BB100209847638822882948DFF85D
:10358C00AC900068C3F3090343EA8223D4E9021226
:10359C000C3020F8033C00F8012CD2B21FFA83F84F
:1035AC0000F02AFC204B00211B690846984748F282
:1035BC00E800FDF774FF0027484600F06CFA48B1AC
:1035CC00002FF4D033680BB101209847002003B0D2
:1035DC00BDE8F08301A9484600F08AFA019D6B7A98
:1035EC000F2B0BD1B5F80D30434502BF2369EA7A96
:1035FC001A702B7B002BDFD00127DDE7AB8943450D
:10360C000CD1AA7A63692069033AD2B29A42A8BF54
:10361C001A46626105F10E0100F0EEFBEB7AE9E768
:10362C00A812002018110020AC120020A0120020BB
:10363C0008B5437A0E3B012B014606D8074800F02B
:10364C0040FA0020FDF728FF08BD054800F039FAC4
:10365C00BDE808400248FDF715BF00BFA0120020CE
:10366C001C110020024B0360024B0361704700BF2A
:10367C0079380108C138010808B50146034800F043
:10368C0020FABDE808400148FDF77CB8281100205D
:10369C00034B01201872034B1B6803B1184770478A
:1036AC0028110020CC1200207FB50F4D0F4B4A681B
:1036BC00E8610C4628461A6000F090F826680C4C1D
:1036CC002046E66000F0E4F9FFF7E2FF01232374E3
:1036DC002B6833B1074A0192074A0396029201A85C
:1036EC00984704B070BD00BFD0120020CC1200204F
:1036FC0028110020DD370108853601081FB5174C4D
:10370C00204600F0C8F9B0B9237CA3B101A920462A
:10371C0000F0EEF9124BDA690123BAB101998DF878
:10372C000830039102A890479DF8083023747BB1B0
:10373C00019800F057F9094800F0ADF920B9237C45
:10374C0013B10648FDF71EF804B010BD2374EFE763
:10375C000199204600F0A9F9EDE700BF28110020DF
:10376C00D01200202DE9F3411D46164B1B680C4668
:10377C00074611461BB10020019298470199124E41
:10378C00F06822464FF00008A0F80970C4720C30A3
:10379C0086F8088000F030FB0C4B41461B69404614
:1037AC00984748F2E800FCF7F4FFF1688A7805F1D5
:1037BC000800033200F020FB02B0BDE8F041FFF737
:1037CC0067BF00BFCC12002028110020D0120020AF
:1037DC0008B50020FCF7DAFF08BD0000024B0360BF
:1037EC00024B0361704700BF1539010851390108BC
:1037FC0037B5094C094D084800F04DF908B103B034
:10380C0030BD01A9204600F073F92B6901991869A4
:10381C0000F057F9EFE700BFF8120020000003207A
:10382C00FDF7FEBE0F4B104A03F1200113605160EF
:10383C0003F13001916003F13C01116203F1440189
:10384C00516203F14C01D16003F15401116103F198
:10385C007001516103F1740180339161D361FDF703
:10386C0007BF00BF340103200000032038B50C4D06
:10387C000446284600F00CF90A4BA2685B681A60F3
:10388C00E268DA60084AC3E90125FDF711FF074B2E
:10389C0022681A60064B62681A60002038BD00BFAF
:1038AC00C001032000000320480A0320F41200206A
:1038BC00F012002008B5054B5A685B6812680121AC
:1038CC001172FDF7FDFE002008BD00BF00000320B3
:1038DC0037B5084C084D074800F0DDF808B103B0C7
:1038EC0030BD204601A900F003F92B6801989847D8
:1038FC00F1E700BFC0010320F4120020014B1B684C
:10390C00184700BFF012002038B50A4D044628466F
:10391C0000F0BEF8084BA268DB68C3E90025FDF790
:10392C00D7FE064B22681A60054B62681A600020AD
:10393C0038BD00BFC8010320000003200013002085
:10394C000413002008B5054BDA68DB6812681021F7
:10395C001172FDF7C5FE002008BD00BF000003205A
:10396C00034BDA68DA68034B10681B68184700BF12
:10397C00000003200013002037B5084C084D074801
:10398C0000F089F808B103B030BD204601A900F061
:10399C00AFF82B6801989847F1E700BFC8010320E6
:1039AC000413002038B50C4D0446284600F070F87E
:1039BC000A4800F06DF80A4BA2681B699A60E2682D
:1039CC00C3E9032522681A6062685A6022695A6149
:1039DC0062699A6138BD00BFD0010320F812002043
:1039EC000000032008B50146034800F06AF8BDE862
:1039FC0008400248FDF7C2BEF8120020FD3701084E
:103A0C0010B5054C204600F043F8044B5B691C6074
:103A1C00BDE81040FDF7C8BED8010320000003200C
:103A2C007047000013B5074C064800F034F808B195
:103A3C0002B010BD204601A900F05AF80198FFF71A
:103A4C00EFFFF1E7D801032007B5FCF7BDFD02231A
:103A5C0000930549054800234FF4805200F054F8B8
:103A6C0003B05DF804FB00BF2813002008130020EE
:103A7C000346054A0548C179994202D0904201D1CA
:103A8C00002070470838F6E70070FF1FF873FF1F1F
:103A9C00006040607047EFF3108372B60268821AC0
:103AAC005042504183F310887047EFF3108372B685
:103ABC0002680A60486001600A68516083F31088EC
:103ACC007047EFF3108372B6086042684A60416039
:103ADC004A68116083F310887047EFF3108272B656
:103AEC0043680168196001684B6082F31088704765
:103AFC0010B5EFF3108472B603680B600068FFF723
:103B0C00ECFF84F3108810BD10B59DF808400160DF
:103B1C000021C0E90311C0E905114260038104775B
:103B2C0014F0020003D0581A18BF0120404210BDF7
:103B3C00024A00231360024A136070472C230020B2
:103B4C002823002010B5EFF3108472B641B101297F
:103B5C0003D1064A13681843106084F3108810BD13
:103B6C00024A136823EA0000F6E700BF282300206E
:103B7C0010B5EFF3108472B6064A13680343136052
:103B8C00054A52F83130184342F8310084F310885A
:103B9C0010BD00BFCC230020BC230020EFF310810C
:103BAC0072B6044A136823EA0000106081F310888F
:103BBC00704700BF48100020EFF3108172B6034A23
:103BCC0013681843106081F3108870474810002068
:103BDC00EFF3108172B6034A13681843106081F337
:103BEC00108870473423002070470000030C1B041E
:103BFC00C3B90004102310F07F4F02BF083300023A
:103C0C00DBB210F0704F08BF0001074A4FEA10708A
:103C1C0008BF0433105C08BFDBB2C3F11F03181AD2
:103C2C00C0B270470023E6E7144101082DE9F84FB4
:103C3C003B4CDFF8FC9026683A4F304020604D46F4
:103C4C003A68D9F800302068DFF8E880DFF8E8B08F
:103C5C00DFF8E8A01340034244D0DBF80010DAF898
:103C6C0000300B403ED130490240086810408A4673
:103C7C0002D18868012310404FEAC30C0AEBC3033E
:103C8C00E2445A68104204BF4FF0FF325A60DAF82F
:103C9C0004B00BEA0000FFF7A9FF0122C8F80000EE
:103CAC0002FA00F02BEA0000CAF80400EFF3108CC3
:103CBC0072B6D8F8003002FA03F02A680B6822EAD0
:103CCC0000022A608A6823EA000322EA00028A6062
:103CDC000B608CF31088154BD8F8002053F8223069
:103CEC009847ADE74FF0FF33C8F80030FFF77CFF83
:103CFC00EFF3108872B63A682B68DAF800101340AC
:103D0C0022681340DBF800200A40134301D1FCF772
:103D1C002BFD88F31088FCF729FD2660BDE8F88F91
:103D2C004410002048100020BC2300203C2300201D
:103D3C00CC23002030230020342300203823002003
:103D4C002DE9F8430F4D104C2F68DFF84090D4F854
:103D5C00008020607B1C1ABF0126BE400026D9F8CB
:103D6C00003021680B4208D023EA01032F60C9F808
:103D7C000030C4F80080BDE8F8833046FCF7FEFC48
:103D8C00EDE700BF3023002038230020342300202F
:103D9C0010B51146EFF3108472B6FFF727FF034BF3
:103DAC0043F8201084F3108810BD00BF3C23002082
:103DBC0070B50D4D0D4C641BA4100026A64209D104
:103DCC000B4D0C4C00F02EF8641BA4100026A642E0
:103DDC0005D170BD55F8043B98470136EEE755F810
:103DEC00043B98470136F2E72C4101082C410108AD
:103DFC002C410108304101080A44914200F1FF3383
:103E0C0000D1704710B511F8014B03F8014F9142E6
:103E1C00F9D110BD02440346934200D1704703F818
:103E2C00011BF9E7F8B500BFF8BC08BC9E4670470B
:0C3E3C00F8B500BFF8BC08BC9E467047FB
:103E48000A4B5A6942F4802230B55A61EFF3108464
:103E580072B600228D5885500432B2F5007FF9D130
:103E68001A69D203FCD484F3108830BD004000588E
:103E7800000000000000000000000000C33E010830
:103E8800E4010320E00103202204040000000000F4
:103E980000000000000000000000000000000044D6
:103EA8000008004005020112279C00F4010000FFF1
:103EB800FFFFFF480101000020000000000048014A
:103EC8000000000000004801000000000000480158
:103ED8000000000000004801000000000000480148
:103EE8000000000000004801000000000000480138
:103EF8000000000000004801000000000000480128
:103F08000000000000004801000000000000480117
:103F18000000000000004801000000000000480107
:103F280000000000000048010000000000004801F7
:103F380000000000000048010000000000004801E7
:103F480000000000000048010000000000004801D7
:103F580000000000000048010000000000004801C7
:103F680000000000000048010000000000004801B7
:103F780000000000000048010000000000004801A7
:103F88000000000000004801000000000000480197
:103F98000000000000004801000000000000480187
:103FA8000000000000004801000000000000480177
:103FB8000000000000004801000000000000480167
:103FC8000000000000004801000000424C45636FFB
:103FD800726500FEDCBA0987654321FEDCBA0987F1
:103FE800654321123456789ABCDEF0123456789A1A
:103FF800BCDEF06C7AD8AC57720953544D5F4F54FD
:10400800410A06071000010002002000010002001A
:10401800010000000300000005000000010000008E
:1040280001000000060000000A0000002000000057
:10403800020000000400000008000000100000005A
:1040480040000000800000000001000000020000A5
:104058000000000000000000000000000000000058
:10406800010000000200000003000000040000003E
:10407800A0860100400D0300801A060000350C00E0
:1040880040420F0080841E0000093D0000127A00A3
:104098000024F40000366E010048E801006CDC02E0
:1040A8000000000000000000000000000000000008
:1040B80004020800010002000400060008000A00CB
:1040C8000C00100020004000800000018FE5B3D5EF
:1040D8002E7F4A982A487ACC20FE000019ED82AE3D
:1040E800ED214C9D4145228E22FE000019ED82AE45
:1040F800ED214C9D4145228E23FE000019ED82AE34
:10410800ED214C9D4145228E24FE0000040302024D
:0C41180001010101000000000000000097
:0841240088C0FF7F01000000CC
:04412C006101010824
:044130003D01010844
:104134000DFF0186000000000000000000000000E8
:1041440000080048000C0048000C00480004004827
:10415400000400480004004800093D00010000007C
:0C41640010000000FFFFFFFFFFFFFFFF47
:10417000000000000000000000000000000000003F
:10418000000000000000000000000000000000002F
:10419000000000000000000000000000000000001F
:1041A000000000000000000000000000000000000F
:1041B00000000000000000000000000000000000FF
:1041C00000000000000000000000000000000000EF
:1041D00000000000000000000000000000000000DF
:1041E00000000000000000000000000000000000CF
:1041F00000000000000000000000000000000000BF
:09420000000000000000000000B5
:1042090000000000000000000000000000000000A5
:104219000000000000000000000000000000000095
:104229000000000000000000000000000000000085
:0E423900000000000000000000000000000077
:104247000000000000000000000000000000000067
:014257000066
:040000050801182DA9
:00000001FF
